:100000000C9462000C948A000C948A000C948A0070
:100010000C948A000C948A000C948A000C948A0038
:100020000C948A000C948A000C948A000C94180892
:100030000C948A000C948A000C948A000C948A0018
:100040000C94AF060C948A000C947D060C94570611
:100050000C948A000C948A000C948A000C948A00F8
:100060000C94F9060C948A0000000000240027007C
:100070002A0000000000250028002B0000000000DE
:1000800023002600290004040404040404040202DA
:100090000202020203030303030301020408102007
:1000A0004080010204081020010204081020000012
:1000B0000008000201000003040700000000000027
:1000C00000004D0A11241FBECFEFD8E0DEBFCDBF28
:1000D00011E0A0E0B1E0E8E0FEE102C005900D9281
:1000E000A237B107D9F722E0A2E7B1E001C01D9223
:1000F000A43FB207E1F710E0C2E6D0E004C02197C8
:10010000FE010E94240CC136D107C9F70E94860A5D
:100110000C94020F0C94000080E480937C0080918A
:100120007A00806480937A0080917A0086FDFCCF0B
:100130008091780090917900089508950895AF9284
:10014000BF92CF92DF92EF92FF920F931F93CF93C4
:10015000DF936C017B018B01040F151FEB015E0126
:10016000AE18BF08C017D10759F06991D601ED91BB
:10017000FC910190F081E02DC6010995892B79F75A
:10018000C501DF91CF911F910F91FF90EF90DF900C
:10019000CF90BF90AF900895FC01538D448D252FD3
:1001A00030E0842F90E0821B930B541710F0CF9611
:1001B000089501970895FC01918D828D981761F043
:1001C000A28DAE0FBF2FB11D5D968C91928D9F5F5A
:1001D0009F73928F90E008958FEF9FEF0895FC0139
:1001E000918D828D981731F0828DE80FF11D858DEC
:1001F00090E008958FEF9FEF0895FC01918D228D7F
:10020000892F90E0805C9F4F821B91098F73992703
:1002100008958BE492E00E94FD0021E0892B09F40F
:1002200020E0822F089580E090E0892B29F00E9441
:10023000090181110C9400000895FC01A48DA80F00
:10024000B92FB11DA35ABF4F2C91848D90E0019618
:100250008F739927848FA689B7892C93A089B18938
:100260008C91837080648C93938D848D981306C0D9
:100270000288F389E02D80818F7D80830895EF923D
:10028000FF920F931F93CF93DF93EC0181E0888F50
:100290009B8D8C8D98131AC0E889F989808185FF20
:1002A00015C09FB7F894EE89FF896083E889F989C2
:1002B00080818370806480839FBF81E090E0DF91C4
:1002C000CF911F910F91FF90EF900895F62E0B8D17
:1002D00010E00F5F1F4F0F731127E02E8C8D8E11D2
:1002E0000CC00FB607FCFACFE889F989808185FF39
:1002F000F5CFCE010E941D01F1CFEB8DEC0FFD2F4C
:10030000F11DE35AFF4FF0829FB7F8940B8FEA89F3
:10031000FB8980818062CFCFCF93DF93EC01888D02
:100320008823B9F0AA89BB89E889F9898C9185FD70
:1003300003C0808186FD0DC00FB607FCF7CF8C91FE
:1003400085FFF2CF808185FFEDCFCE010E941D0198
:10035000E9CFDF91CF910895833081F028F4813087
:1003600099F08230A9F008958730A9F08830C9F05B
:100370008430B1F4809180008F7D03C08091800033
:100380008F7780938000089584B58F7784BD08951A
:1003900084B58F7DFBCF8091B0008F778093B000C4
:1003A00008958091B0008F7DF9CFCF93DF93282FF0
:1003B00030E0F901E255FF4F8491F901E656FF4F15
:1003C000D491F901EA57FF4FC491CC23A1F08111D8
:1003D0000E94AC01EC2FF0E0EE0FFF1FE458FF4F3E
:1003E000A591B491EC91ED2381E090E009F480E0D7
:1003F000DF91CF91089580E090E0FACF1F93CF93E3
:10040000DF93282F30E0F901E255FF4F8491F90185
:10041000E656FF4FD491F901EA57FF4FC491CC2320
:10042000A9F0162F81110E94AC01EC2FF0E0EE0F25
:10043000FF1FEE58FF4FA591B4918FB7F894EC9140
:10044000111108C0D095DE23DC938FBFDF91CF91CF
:100450001F910895DE2BF8CFCF93DF9390E0FC013E
:10046000E656FF4F24918A579F4FFC0184918823C1
:10047000D1F090E0880F991FFC01E859FF4FA5913A
:10048000B491FC01EE58FF4FC591D49161110EC09B
:100490009FB7F8948C91E22FE0958E238C9328815E
:1004A000E223E8839FBFDF91CF9108958FB7F8943F
:1004B000EC91E22BEC938FBFF6CF3FB7F89480918D
:1004C000E8019091E901A091EA01B091EB0126B514
:1004D000A89B05C02F3F19F00196A11DB11D3FBF7C
:1004E000BA2FA92F982F8827BC01CD01620F711D4B
:1004F000811D911D42E0660F771F881F991F4A9545
:10050000D1F708952091C001260F3327331F2132E0
:100510003105ECF420912102FC0190E080E02430D0
:1005200069F082E00895A091C0012191AC0140568C
:100530005E4FA40FB52FB11D2C930196861798F32B
:100540008091C001680F6093C00180E0089581E050
:1005500008951092210281E0809320021092FB0105
:1005600061E082E10E94FE0161E083E10E94FE0100
:10057000E9EBF0E080818E7F808380818D7F8083B6
:1005800088E48093B80085E48093BC000895CF93FD
:10059000DF9391E090939F018823B9F0C091B80058
:1005A000D091BA008091BC008A7B8093BC0060E04F
:1005B00082E10E94FE0160E083E10E94FE010E9450
:1005C000A902D093BA00C093B800DF91CF910895EB
:1005D0008F929F92AF92BF92CF92DF92EF92FF9253
:1005E0000F931F93CF93DF93D0914A02D13208F03B
:1005F000D7C0182FC09149020E945D026B017C0197
:100600008091210281116BC082E0809321021093BE
:1006100020028FEF80931F0210921E02D0931D02C2
:10062000A9E2B2E0EDEFF1E080E0D81391C01092C2
:10063000FC018091FC01CC0FC82BC093FC01809180
:10064000FB01813009F088C01092FB010E945D021D
:100650006B017C018091FC018093BB00809123029F
:1006600090912402A0912502B0912602892B8A2B19
:100670008B2BA1F00E945D020091230210912402B5
:1006800020912502309126026C197D098E099F095F
:10069000061717072807390708F442C08091BC00E5
:1006A00083FDD8CF85EC8093BC000E945D026B0176
:1006B0007C0180912102823009F450C080911F0298
:1006C0008F3F09F46FC080911F02803209F46CC023
:1006D00080911F02803309F469C084E026C08091B4
:1006E000230290912402A0912502B0912602892B29
:1006F0008A2B8B2B09F484CF0E945D028090230209
:1007000090902402A0902502B09026026C197D09D9
:100710008E099F0986169706A806B90608F070CFBD
:10072000809122020E94C70285E010922802109256
:100730004A0210922702DF91CF911F910F91FF90F3
:10074000EF90DF90CF90BF90AF909F908F900895E3
:100750009D9191938F5F69CF85EEA5CF8091230204
:1007600090912402A0912502B0912602892B8A2B18
:100770008B2B09F49ECF0E945D0200912302109101
:10078000240220912502309126026C197D098E09E0
:100790009F09061717072807390708F08ACFC0CF27
:1007A00081E0C3CF80E0C1CF82E0BFCF83E0BDCF87
:1007B0000895E091F1018091F001E81730F4F0E044
:1007C000E158FE4F808190E008958FEF9FEF0895EC
:1007D0009091F1018091F0012FEF3FEF981748F4CD
:1007E000E92FF0E0E158FE4F208130E09F5F9093C9
:1007F000F101C90108958091F0019091F101891BE7
:10080000990B0895CF92DF92EF92FF920F931F936F
:10081000CF93DF937C01CB018A0120912702222311
:1008200089F0EB016B01C40ED51ECC15DD0569F016
:100830006991D701ED91FC910190F081E02DC70104
:100840000995F3CF642F0E948202C801DF91CF91F6
:100850001F910F91FF90EF90DF90CF900895CF936D
:10086000DF931F92CDB7DEB7698320912702222341
:10087000F9F020914A02203258F021E030E0FC01EA
:100880003383228390E080E00F90DF91CF91089531
:1008900080912802E82FF0E0E75DFD4F9981908379
:1008A0008F5F8093280280934A0281E090E0ECCF32
:1008B00061E0CE0101960E948202F7CF682F88EE98
:1008C00092E00C942F0490E080E00895CF93DF93A2
:1008D00088E00E94D501EC0190937E0180937D0118
:1008E00089E00E94D501219741F08130910511F0F6
:1008F00082E090E0DF91CF91089590E080E0FACF20
:10090000CF93DF93FC0101900020E9F73197AF010D
:10091000481B590BBC018BE492E00E949F00EC0144
:1009200042E050E069E271E08BE492E00E949F00B7
:100930008C0F9D1FDF91CF91089585ED8093BC00B2
:100940008091230290912402A0912502B091260269
:100950000796A11DB11D23E0B695A795979587959C
:100960002A95D1F72091BC0024FD03C010922102EA
:1009700008954091230250912402609125027091C4
:100980002602452B462B472B69F30097A105B1059D
:1009900041F025E32A95F1F700000197A109B1097B
:1009A000E1CF809122020C94C7020C94E20B0C94CC
:1009B000DA0B8F929F92AF92BF92CF92DF92EF921B
:1009C000FF920F931F93CF93DF93CDB7DEB7289796
:1009D0000FB6F894DEBF0FBECDBF81E08093270233
:1009E00088E4809349021092280210924A028AEA0F
:1009F00090E00E945E0480E00E94E8020E945D0296
:100A00006B017C0180912102811164C081E080939F
:100A10002102809320029FEF90931F0210921E02EA
:100A200080931D028093FC018091FC01806980937A
:100A3000FC018091FB01813009F0C2C01092FB01E2
:100A40000E945D026B017C018091FC018093BB00E0
:100A50008091230290912402A0912502B091260258
:100A6000892B8A2B8B2BA1F00E945D0280902302A0
:100A700090902402A0902502B09026026C197D0966
:100A80008E099F0986169706A806B90608F443C082
:100A90008091BC0083FDD8CF85EC8093BC000E9480
:100AA0005D026B017C0180912102813009F48AC0D2
:100AB00080911E0292E0823010F490911E02ADEF00
:100AC000B1E0EFE7F1E080E0891751F12D9121933A
:100AD0008F5FFACF8091230290912402A09125028A
:100AE000B0912602892B8A2B8B2B09F48BCF0E9485
:100AF0005D028090230290902402A0902502B09085
:100B000026026C197D098E099F0986169706A8068C
:100B1000B90608F077CF809122020E94C70290E0C8
:100B20001092F1019093F00188EE92E00E94E803A8
:100B3000F82E88EE92E00E94E80387FB002700F978
:100B400010E08F2D880F990B082B192B85E0809FC3
:100B50009001819F300D11248E010F5F1F4F37FFD1
:100B600053C088279927821B930B6AE070E00E948C
:100B7000FC0B9F938F937F936F938CE291E09F93F5
:100B80008F931F930F930E942A0C0FB6F894DEBF29
:100B90000FBECDBFC8010E94B40B28960FB6F894C3
:100BA000DEBF0FBECDBFDF91CF911F910F91FF90A0
:100BB000EF90DF90CF90BF90AF909F908F9008956F
:100BC00085EE6BCF8091230290912402A0912502A3
:100BD000B0912602892B8A2B8B2B09F464CF0E94BB
:100BE0005D028090230290902402A0902502B09094
:100BF00026026C197D098E099F0986169706A8069C
:100C0000B90608F050CF87CFC9016AE070E00E94B2
:100C1000FC0B283E33403CF09F938F937F936F9360
:100C200085E391E0ACCF9F938F937F936F938DE398
:100C300091E0A5CF0E948C002091F6013091F70140
:100C400082179307FCF40E94D9042091F40130919B
:100C5000F50128173907B4F42091F2013091F3011E
:100C6000821793077CF480917C0181110BC00E9454
:100C70006604892B39F461E087E00E94FE0181E07F
:100C800080937B010895CF93DF93EC018BE492E096
:100C90000E94FD00181619062CF48BE492E00E94C5
:100CA000DB00F4CF19821882DF91CF9108951F9253
:100CB0000F920FB60F9211242F933F934F935F9390
:100CC0006F937F938F939F93AF93BF93EF93FF9314
:100CD0008BE492E00E941D01FF91EF91BF91AF91D3
:100CE0009F918F917F916F915F914F913F912F9144
:100CF0000F900FBE0F901F9018951F920F920FB676
:100D00000F9211242F938F939F93EF93FF93E09172
:100D10005B02F0915C028081E0916102F0916202DD
:100D200082FD1BC09081809164028F5F8F73209140
:100D30006502821741F0E0916402F0E0E55BFD4F4F
:100D4000958F80936402FF91EF919F918F912F91E6
:100D50000F900FBE0F901F9018958081F4CF1F92B7
:100D60000F920FB60F9211242F933F938F939F935F
:100D7000AF93BF938091E4019091E501A091E601CA
:100D8000B091E7013091E30123E0230F2D3758F5AF
:100D90000196A11DB11D2093E3018093E40190937E
:100DA000E501A093E601B093E7018091E8019091FD
:100DB000E901A091EA01B091EB010196A11DB11DDD
:100DC0008093E8019093E901A093EA01B093EB01CD
:100DD000BF91AF919F918F913F912F910F900FBE37
:100DE0000F901F90189526E8230F0296A11DB11DA4
:100DF000D2CF1F920F920FB60F9211242F933F93D1
:100E00004F935F936F937F938F939F93AF93BF9312
:100E1000EF93FF938091B900887F803609F44AC030
:100E2000F0F5883209F4A7C018F5803109F49BC0A9
:100E3000B8F4882309F4F9C0883009F494C0FF910C
:100E4000EF91BF91AF919F918F917F916F915F9142
:100E50004F913F912F910F900FBE0F901F901895BB
:100E6000883109F488C0803251F780931F0214C082
:100E7000803409F49DC040F48033B9F38833F9F627
:100E800080931F0285ECB0C0803509F485C0883599
:100E900009F496C0883499F60E949D04D0CF883911
:100EA00009F48CC038F5883729F050F4883611F0F1
:100EB000803729F683E0809321021092E20157C027
:100EC000883809F47BC0803919F0803809F0B7CF31
:100ED0008091E201803208F071C0E091E20181E08E
:100EE0008E0F8093E2018091BB00F0E0EE53FE4F45
:100EF00080833DC0803B39F0E0F4803A09F479C04A
:100F0000883A09F09CCF84E0809321021092C101BD
:100F10001092C001E091EE01F091EF0109958091EE
:100F2000C00181110FC081E08093C0011092A00127
:100F300009C0803C09F4A6CF883C09F4A3CF883BC4
:100F400009F07DCFE091C10181E08E0F8093C10156
:100F5000F0E0E056FE4F80818093BB009091C1018C
:100F60008091C00129C08091FC018093BB0085EC79
:100F70008093BC0064CF90911E0280911D0298174F
:100F800058F5E0911E0281E08E0F80931E02F0E082
:100F9000E350FE4F8081E9CFE0911E0281E08E0F89
:100FA00080931E028091BB00F0E0E350FE4F8083EF
:100FB00090911E0280911D029817C8F285E8D8CF43
:100FC000E0911E0281E08E0F80931E028091BB0093
:100FD000F0E0E350FE4F80838091200281115CCFCE
:100FE00081E08093FB0184EA8093BC00109221028F
:100FF00026CF85EC8093BC00109221028091E20103
:10100000803230F4E091E201F0E0EE53FE4F1082C6
:101010006091E20170E0E091EC01F091ED0182EC71
:1010200091E009951092E2010ACF10921F0234CF8D
:101030001F920F920FB60F921124CF92DF92EF9270
:10104000FF920F931F932F933F934F935F936F9351
:101050007F938F939F93AF93BF93EF93FF93CF9320
:10106000DF93CDB7DEB7C25DD109DEBFCDBF8091C2
:101070007A018B3339F4809172018F5F8093720112
:1010800010927A01809172018B3339F4809174014E
:101090008F5F809374011092720180917401873187
:1010A00011F41092740180917A018F5F80937A011C
:1010B0008BE492E00E94FD00181619060CF0AFC1F7
:1010C000CE0101967C0110E000E06C018BE492E01F
:1010D0000E94FD00181619067CF48BE492E00E9431
:1010E000DB00082E000C990BC097F70181939193B8
:1010F0007F010F5F1F4FEACF89819A81892B09F009
:10110000BCC06B817C81E090F801F090F9016E1514
:101110007F0509F0B2C08D819E818230910509F46E
:1011200049C14CF4009761F1019709F47FC0C601F1
:101130000E944306A2C08330910509F45CC1049764
:10114000B1F70330110509F066C11F9284E08F9357
:101150007F936F9389E591E09F938F938E0107535F
:101160001F4F1F930F930E942A0CC8010E948004F6
:101170000E941A060FB6F894DEBF0FBECDBFD7CFC0
:101180000E301105A1F690E080E00E94D5046F8139
:1011900081E090E00E94D50489851AE06B85819FEB
:1011A000600D112482E090E00E94D5048D856F854A
:1011B000819F600D112483E090E00E94D50489890D
:1011C0006B89819F600D112484E090E00E94D5041A
:1011D0008D896F89819F600D112485E090E00E94C8
:1011E000D504898D6B8D819F600D112486E090E080
:1011F0000E94D5048C818F938B818F9386E491E03C
:101200009F938F938E0107531F4F1F930F930E943D
:101210002A0CC8010E94800481E0809300010F9095
:101220000F900F900F900F900F9027C00430110572
:1012300009F07DCF1092000181E0809377012F812A
:101240003885232B09F480E080937C011F928F93D3
:10125000FF92EF928BE491E09F938F938E0107535F
:101260001F4F1F930F930E942A0CC8010E948004F5
:101270000FB6F894DEBF0FBECDBF809175018823F5
:1012800059F09091740180917301981305C01092E8
:10129000750181E08093000180917B01882301F139
:1012A00080917A018E31E1F40E9466040297C1F4C4
:1012B00060E087E00E94FE0110927B0181E0809354
:1012C0007501809174012091010130910201820F1A
:1012D000932F911D68E170E00E94FC0B80937301D5
:1012E00080917601882309F440C000910301109198
:1012F00004010C399FEF1907C1F10E946604F82E12
:10130000E92E0E948C008F3FE3E09E070CF0BFC0E7
:101310008C3BF2E09F070CF0BCC0863491050CF0CA
:10132000BAC083E01F930F93EF92FF921F928F93A7
:101330008091F9018F938091F8018F9385E691E078
:101340009F938F938E010F5F1F4F1F930F930E94E8
:101350002A0CC8010E9480041092FA0110927601B2
:101360000FB6F894DEBF0FBECDBF8091770181111B
:101370000E941A06CE52DF4F0FB6F894DEBF0FBEA2
:10138000CDBFDF91CF91FF91EF91BF91AF919F9131
:101390008F917F916F915F914F913F912F911F910D
:1013A0000F91FF90EF90DF90CF900F900FBE0F90B6
:1013B0001F9018950430110509F0B9CE8F819885DA
:1013C000009791F0019739F461E087E00E94FE01F7
:1013D00081E080937B0188858F938F818F93FF922B
:1013E000EF9282E591E038CF60E087E00E94FE0155
:1013F00010927B01F0CF0330110509F098CE81E007
:101400008093FA01809376018CE99FEF9093040119
:101410008093030132CFC6010E94430688CE80919B
:101420000001882309F429CF80917A016AE00E94A3
:10143000F00B911122CF809178019091790106975C
:10144000E4F480917A016BE30E94F00B911115CFC7
:101450008091F9018F938091F8018F938FE591E04E
:101460009F938F938E010F5F1F4F1F930F930E94C7
:101470002A0CC8010E948004D2CE109279011092E9
:10148000780181E08093770110927C01F6CE80E0B4
:1014900049CF81E047CF82E045CFEBE4F2E0138211
:1014A000128288EE93E0A0E0B0E084839583A68367
:1014B000B78329E031E03183208325EC30E03587A4
:1014C000248724EC30E03787268720EC30E0318B0E
:1014D000208B21EC30E0338B228B22EC30E0358BFB
:1014E000248B26EC30E0378B268B118E128E138ED8
:1014F000148EE8EEF2E01382128284839583A68331
:10150000B7838BE191E0918380830895789484B5CB
:10151000826084BD84B5816084BD85B5826085BDEF
:1015200085B5816085BD80916E00816080936E007D
:10153000109281008091810082608093810080916F
:101540008100816080938100809180008160809320
:1015500080008091B10084608093B1008091B000E0
:1015600081608093B00080917A00846080937A00DB
:1015700080917A00826080937A0080917A00816005
:1015800080937A0080917A00806880937A0010922C
:10159000C100E0915B02F0915C0282E08083E09107
:1015A0005702F09158021082E0915902F0915A02CC
:1015B0008FEC808310926302E0915F02F0916002F1
:1015C00086E08083E0915D02F0915E02808180611F
:1015D0008083E0915D02F0915E028081886080836B
:1015E000E0915D02F0915E02808180688083E091ED
:1015F0005D02F0915E0280818F7D80831092F10107
:101600001092F0011092280210924A020E94A90240
:101610008DE990E09093EF018093EE018EE990E0E8
:101620009093ED018093EC0181E08093270288E4A0
:10163000809349028CEA90E00E945E0490E080E092
:101640000E945E041092280210924A028EEE90E0F0
:101650000E945E0481E00E94E80260E088E00E944F
:101660002C0260E089E00E942C0261E087E00E9489
:101670002C02F894109280001092810088E09DE383
:101680009093890080938800809181008860809386
:101690008100809181008160809381008091810030
:1016A00084608093810080916F00826080936F00DE
:1016B000789490E080E00E94D7048F3F71F190E031
:1016C0009093F9018093F80181E090E00E94D704A3
:1016D000813009F440C0C0F1823009F43FC083304A
:1016E00009F43FC082E090E00E94D70490E090931C
:1016F000F5018093F40183E090E00E94D70490E02C
:101700009093F3018093F20186E090E00E94D70469
:1017100090E09093020180930101C0E0D0E08091BD
:10172000FA01882341F00E94D90490930401809328
:1017300003011092FA01209791F30E940901882376
:1017400071F30E940000EBCF8FEF93E09093F701CD
:101750008093F601C7CF8CEB92E0F8CF8CE291E05A
:10176000F5CF84E690E0F2CFFC0188279927E89432
:1017700021912032E9F3293010F02E30C8F32B32BA
:1017800041F02D3239F4689404C00E94D20B820FCC
:10179000911D219120532A30C0F31EF4909581951C
:1017A0009F4F08957AE0979F902D879F802D910DF0
:1017B00011240895F999FECF92BD81BDF89A992719
:1017C00080B50895262FF999FECF1FBA92BD81BD2D
:1017D00020BD0FB6F894FA9AF99A0FBE01960895B3
:1017E000991B79E004C0991F961708F0961B881F73
:1017F0007A95C9F78095089597FB072E16F4009403
:1018000007D077FD09D00E94100C07FC05D03EF4EC
:10181000909581959F4F0895709561957F4F08959C
:10182000AA1BBB1B51E107C0AA1FBB1FA617B70706
:1018300010F0A61BB70B881F991F5A95A9F7809522
:101840009095BC01CD010895EE0FFF1F0590F49116
:10185000E02D0994AEE0B0E0E0E3FCE00C94D90E9A
:101860000D891E8986E08C831A8309838FEF9FE799
:101870009E838D83AE01475E5F4F6F89788DCE0169
:1018800001960E944D0C2F813885020F131FF8011D
:1018900010822E96E4E00C94F50EABE0B0E0E3E5A8
:1018A000FCE00C94CB0E7C013B018A01FC01178209
:1018B0001682838181FFC8C1CE0101965C01F701C8
:1018C0009381F30193FD859193FF81913F018823DB
:1018D00009F453C1853239F493FD859193FF8191C9
:1018E0003F01853229F4B70190E00E943D0EE7CF19
:1018F000912C212C312CFFE1F31538F08B3211F1B2
:1019000090F4803209F1833229F137FC3CC020ED9C
:10191000280F2A3050F536FE20C08AE0989E200D10
:101920001124922E06C08D3291F0803371F76894A5
:1019300030F8F30193FD859193FF81913F0181116F
:10194000DACF21C0689431F8689432F8F2CF689405
:1019500033F8EFCF689434F8ECCFEAE02E9E200DF8
:101960001124222E689435F8E4CF8E3229F436FC07
:1019700004C1689436F8DDCF8C3619F4689437F8D2
:10198000D8CF8836B1F2982F9F7D95549330E0F0F0
:101990008336A1F18337C1F1833509F063C0280193
:1019A000F2E04F0E511CF801C080D180692D70E02B
:1019B00036FC02C06FEF7FEFC6010E94270E4C017C
:1019C000689437F882010AC00C5F1F4FFFE3F98368
:1019D00088248394912C6501E89437F833FE2DC058
:1019E000522C8114910471F5552009F468CFB70188
:1019F00080E290E00E943D0E5A94F6CFF80180817B
:101A000089830E5F1F4FE4CF2801F2E04F0E511C77
:101A1000F801C080D180692D70E036FC02C06FEF04
:101A20007FEFC6010E94320E4C018201D5CFB70173
:101A300080E290E00E943D0E2A942814190409F0D7
:101A4000B0F7CECFF60137FC859137FE81916F015B
:101A5000B70190E00E943D0E51105A94F1E08F1AA8
:101A60009108BFCF843619F0893609F077C0F801A4
:101A700037FE6BC060817181828193810C5F1F4F43
:101A8000F32DFF763F2E97FF09C0909580957095B6
:101A900061957F4F8F4F9F4F689437F82AE030E071
:101AA000A5010E946D0EC82ECA188C2C432C36FE40
:101AB0000CC0E89440F8C91440F434FE05C032FC70
:101AC00003C0F32DFE7E4F2E892C44FE95C0FE01EF
:101AD000EC0DF11D8081803309F087C0242D297E13
:101AE000422E842D8870582E43FC95C040FE8FC036
:101AF0009C2C821418F42C0C922C981844FE91C043
:101B0000B70180E390E00E943D0E42FE09C088E7E5
:101B100090E041FE02C088E590E0B7010E943D0ED2
:101B2000C91408F48AC0CA94D12C9FEFC91AD90AE3
:101B3000CA0CDB1CF60182916F01B70190E00E9494
:101B40003D0EAC14BD04B1F74FCF60817181072EFB
:101B5000000C880B990B0E5F1F4F92CFD32CE8948B
:101B6000D4F82AE030E0853739F1232D297FD22EB1
:101B70008F3601F148F48835A9F0F7018681978105
:101B80002B96E2E10C94E70E803749F08837A9F7ED
:101B9000D4FE02C06894D2F820E130E00DC0689411
:101BA000D4F8F6CF34FE03C0822F8660D82E20E111
:101BB00032E002C028E030E0F801D7FE0FC06081BB
:101BC0007181828193810C5F1F4FA5010E946D0E70
:101BD000C82ECA183D2CE89437F867CF6081718110
:101BE00090E080E00E5F1F4FF0CF42FC02C0839474
:101BF00078CF8394839475CF842D867809F471CF40
:101C0000F6CFB70180E290E00E943D0E83948214EB
:101C1000C0F3512C73CF522C5818821408F46ECF95
:101C2000F8CF842D867809F47BCF8BE241FE80E2E9
:101C300047FC8DE2B70190E071CFB70180E390E0FF
:101C40000E943D0E9A946CCF8FEF9FEF99CFFC01CD
:101C50000590615070400110D8F7809590958E0FD7
:101C60009F1F0895FC016150704001900110D8F74A
:101C7000809590958E0F9F1F08950F931F93CF937C
:101C8000DF93182F092FEB018B8181FD09C01FEF16
:101C90000FEF812F902FDF91CF911F910F9108951A
:101CA00082FF14C02E813F818C819D8128173907C6
:101CB0003CF4E881F981CF010196998388831083F0
:101CC0008E819F8101969F838E83E3CFE885F9857E
:101CD000812F0995892BA1F3DACFFA01AA272830A1
:101CE00051F1203181F1E8946F936E7F6E5F7F4FE9
:101CF0008F4F9F4FAF4FB1E03ED0B4E03CD0670F65
:101D0000781F891F9A1FA11D680F791F8A1F911DB7
:101D1000A11D6A0F711D811D911DA11D20D009F407
:101D200068943F912AE0269F11243019305D319349
:101D3000DEF6CF010895462F4770405D4193B3E032
:101D40000FD0C9F7F6CF462F4F70405D4A3318F0D9
:101D5000495D31FD4052419302D0A9F7EACFB4E08A
:101D6000A6959795879577956795BA95C9F7009742
:101D70006105710508959B01AC010A2E06945795E3
:101D8000479537952795BA95C9F7620F731F841F3A
:101D9000951FA01D08952F923F924F925F926F92D0
:101DA0007F928F929F92AF92BF92CF92DF92EF92EB
:101DB000FF920F931F93CF93DF93CDB7DEB7CA1B6C
:101DC000DB0B0FB6F894DEBF0FBECDBF09942A8897
:101DD000398848885F846E847D848C849B84AA843F
:101DE000B984C884DF80EE80FD800C811B81AA81CC
:101DF000B981CE0FD11D0FB6F894DEBF0FBECDBF97
:081E0000ED010895F894FFCFF5
:101E0800010C009CFF000000003F019F00CC008CEB
:101E180001FD00DB00EF00000000002F0402046356
:101E280004D803FB03E803D9030D0A002D253275F6
:101E38002E253175002533752E2531750020253264
:101E4800752E253175003125643000312564312522
:101E5800640031256432256400312564256400312D
:101E680025753130003125643325642564253032E9
:021E7800640004
:00000001FF
